:100000000C945E000C9486000C9486000C94860080
:100010000C9486000C9486000C9486000C94860048
:100020000C9486000C9486000C9486000C94860038
:100030000C9486000C9486000C9486000C94860028
:100040000C9409040C9486000C9479040C945304C9
:100050000C9486000C9486000C9486000C94860008
:100060000C9486000C948600000000080002010039
:100070000003040700000000000000000000000072
:10008000250028002B0000000000240027002A0083
:10009000040404040404040402020202020203032E
:1000A0000303030301020408102040800102040836
:1000B0001020010204081020AB04B30711241FBE56
:1000C000CFEFD8E0DEBFCDBF22E0A8E2B2E001C0B2
:1000D0001D92A93DB207E1F712E0A0E0B1E0E6E62B
:1000E000F5E102C005900D92A832B107D9F710E0F2
:1000F000CDE5D0E004C02197FE010E947408CC3504
:10010000D107C9F70E94E6040C94A60A0C940000DB
:1001100090E0FC01EC55FF4F249180579F4FFC016C
:100120008491882399F090E0880F991FFC01EA5789
:10013000FF4FA591B491FC01E458FF4F8591949134
:100140008FB7F894EC91E22BEC938FBF089590E079
:10015000FC01E859FF4F2491FC01EC55FF4F34910D
:10016000FC01E057FF4FE491EE23C9F0222339F060
:10017000233001F1A8F4213019F1223029F1F0E007
:10018000EE0FFF1FE458FF4FA591B4918FB7F8947D
:10019000EC91611126C030953E233C938FBF0895AA
:1001A0002730A9F02830C9F0243049F78091800029
:1001B0008F7D03C0809180008F7780938000DFCF98
:1001C00084B58F7784BDDBCF84B58F7DFBCF8091E5
:1001D000B0008F778093B000D2CF8091B0008F7D38
:1001E000F9CF3E2BDACF3FB7F89480912E02909151
:1001F0002F02A0913002B091310226B5A89B05C014
:100200002F3F19F00196A11DB11D3FBFBA2FA92F95
:10021000982F8827BC01CD01620F711D811D911D92
:1002200042E0660F771F881F991F4A95D1F70895FE
:100230008F929F92AF92BF92CF92DF92EF92FF92F6
:100240006B017C010E94F3004B015C01C114D104DD
:10025000E104F104B9F00E94F300681979098A09F0
:100260009B09683E73408105910580F321E0C21A25
:10027000D108E108F10888EE880E83E0981EA11CE1
:10028000B11CE4CFFF90EF90DF90CF90BF90AF9084
:100290009F908F900895AF92BF92CF92DF92EF928E
:1002A000FF920F931F93CF93DF936C017B018B0120
:1002B000040F151FEB015E01AE18BF08C017D10770
:1002C00059F06991D601ED91FC910190F081E02DFA
:1002D000C6010995892B79F7C501DF91CF911F914F
:1002E0000F91FF90EF90DF90CF90BF90AF90089567
:1002F000FC01538D448D252F30E0842F90E0821B2C
:10030000930B541710F0CF96089501970895FC01B0
:10031000918D828D981761F0A28DAE0FBF2FB11D08
:100320005D968C91928D9F5F9F73928F90E0089560
:100330008FEF9FEF0895FC01918D828D981731F01A
:10034000828DE80FF11D858D90E008958FEF9FEF6E
:100350000895FC01918D228D892F90E0805C9F4F44
:10036000821B91098F739927089582E392E00E947E
:10037000A90121E0892B09F420E0822F0895FC01D6
:10038000A48DA80FB92FB11DA35ABF4F2C91848DF6
:1003900090E001968F739927848FA689B7892C9353
:1003A000A089B1898C91837080648C93938D848DA6
:1003B000981306C00288F389E02D80818F7D8083A9
:1003C0000895EF92FF920F931F93CF93DF93EC0169
:1003D00081E0888F9B8D8C8D98131AC0E889F989EC
:1003E000808185FF15C09FB7F894EE89FF896083EF
:1003F000E889F98980818370806480839FBF81E070
:1004000090E0DF91CF911F910F91FF90EF900895B1
:10041000F62E0B8D10E00F5F1F4F0F731127E02E8C
:100420008C8D8E110CC00FB607FCFACFE889F989C4
:10043000808185FFF5CFCE010E94BF01F1CFEB8D0A
:10044000EC0FFD2FF11DE35AFF4FF0829FB7F89498
:100450000B8FEA89FB8980818062CFCFCF93DF93B6
:10046000EC01888D8823B9F0AA89BB89E889F989CC
:100470008C9185FD03C0808186FD0DC00FB607FC01
:10048000F7CF8C9185FFF2CF808185FFEDCFCE0134
:100490000E94BF01E9CFDF91CF91089561E082E032
:1004A0000E94A70064E670E080E090E00E941801DE
:1004B00060E082E00C94A70061E084E00E94A70065
:1004C00064E670E080E090E00E94180160E084E063
:1004D0000C94A700CF93DF93EC010E945C0288EE9E
:1004E00093E0C89FB001C99F700DD89F700D112473
:1004F000072E000C880B990B0E941801DF91CF91F9
:100500000C944E028F929F92AF92BF920F931F93C3
:10051000CF93DF93CDB7DEB7A1970FB6F894DEBFC8
:100520000FBECDBF19A2423008F44AE08E010F5D24
:100530001F4F842E912CB12CA12CA50194010E9457
:100540003E08E62FB901CA01EA3044F5E05DD80162
:10055000EE938D01232B242B252B79F790E080E05F
:10056000109769F0FD0101900020E9F73197AF0184
:100570004A1B5B0BBD0182E392E00E944B01A196F6
:100580000FB6F894DEBF0FBECDBFDF91CF911F91A4
:100590000F91BF90AF909F908F900895E95CD7CF57
:1005A000FC0101900020E9F73197AF01481B590B7E
:1005B000BC0182E392E00C944B01DF92EF92FF9238
:1005C0000F931F93CF93DF93CEE0D0E092E4D92E28
:1005D0008BE0E82EF12C10E000E0D0927C008091BE
:1005E0007A00806480937A0080917A0086FDFCCF47
:1005F0008091780090917900080F191F68EC70E0E5
:1006000080E090E00E94180181E0E81AF10829F7E3
:10061000023313425CF088E191E0DF91CF911F91AA
:100620000F91FF90EF90DF900C94D002219781F60C
:10063000DF91CF911F910F91FF90EF90DF90089580
:10064000CF92DF92EF92FF92CF93DF936C01990FDD
:10065000EE08FF08F7FE19C06DE282E392E00E9407
:10066000E101EC0166277727CB016C197D098E0922
:100670009F094AE00E9482028C0F9D1FDF91CF915B
:10068000FF90EF90DF90CF9008954AE0C701B60148
:10069000DF91CF91FF90EF90DF90CF900C9482028A
:1006A000FC0180819181009711F00C941609089546
:1006B0000F931F93CF93DF93EC018881998100976B
:1006C00059F02A813B812617370730F081E0DF910E
:1006D000CF911F910F9108958B016F5F7F4F0E9403
:1006E0009F09009759F0998388831B830A832C8183
:1006F0003D81232B59F7FC011082E8CF80E0E7CF42
:10070000EF92FF920F931F93CF93DF93EC017B0146
:100710008A01BA010E94580328813981811114C0CD
:100720002115310519F0C9010E9416091982188294
:100730001D821C821B821A82CE01DF91CF911F91F4
:100740000F91FF90EF9008951D830C83B701C901AD
:100750000E94770AF1CFFC0111821082138212826B
:1007600015821482FB0101900020E9F73197AF0157
:10077000461B570B0C948003EF92FF920F931F932D
:10078000CF93DF9300D0CDB7DEB7EE24E39482E3BE
:1007900092E00E94A901892B69F182E392E00E9414
:1007A0008701F82E89831A820091D3021091D40216
:1007B0000F5F1F4FB8018FEC92E00E94580388230F
:1007C00099F02091CF023091D0028091D302909184
:1007D000D402BE016F5F7F4F820F931F0E94770A82
:1007E0001093D4020093D3028AE0F812D0CFE092A3
:1007F0002802CDCF0F900F90DF91CF911F910F91D5
:10080000FF90EF9008950E94B50181110C94BC03F4
:1008100008951F920F920FB60F9211242F933F93BA
:100820008F939F93AF93BF9380912A0290912B0255
:10083000A0912C02B0912D023091290223E0230FC8
:100840002D3758F50196A11DB11D209329028093E3
:100850002A0290932B02A0932C02B0932D02809138
:100860002E0290912F02A0913002B0913102019698
:10087000A11DB11D80932E0290932F02A0933002F0
:10088000B0933102BF91AF919F918F913F912F9182
:100890000F900FBE0F901F90189526E8230F029619
:1008A000A11DB11DD2CF1F920F920FB60F9211242E
:1008B0002F933F934F935F936F937F938F939F9368
:1008C000AF93BF93EF93FF9382E392E00E94BF0147
:1008D000FF91EF91BF91AF919F918F917F916F9118
:1008E0005F914F913F912F910F900FBE0F901F90EE
:1008F00018951F920F920FB60F9211242F938F937A
:100900009F93EF93FF93E0914202F0914302808125
:10091000E0914802F091490282FD1BC090818091D4
:100920004B028F5F8F7320914C02821741F0E09150
:100930004B02F0E0EE5CFD4F958F80934B02FF91F0
:10094000EF919F918F912F910F900FBE0F901F905D
:1009500018958081F4CFE2E3F2E01382128288EEF0
:1009600093E0A0E0B0E084839583A683B7838AE018
:1009700091E09183808385EC90E09587848784EC77
:1009800090E09787868780EC90E0918B808B81EC5C
:1009900090E0938B828B82EC90E0958B848B86EC3D
:1009A00090E0978B868B118E128E138E148EEFEC47
:1009B000F2E011821082138212821582148250E0BA
:1009C00040E06EEF71E0CF010C948003CF93DF9392
:1009D000CDB7DEB762970FB6F894DEBF0FBECDBFBE
:1009E000789484B5826084BD84B5816084BD85B50A
:1009F000826085BD85B5816085BD80916E00816016
:100A000080936E00109281008091810082608093BB
:100A100081008091810081608093810080918000BD
:100A20008160809380008091B10084608093B100E8
:100A30008091B00081608093B00080917A008460E2
:100A400080937A0080917A00826080937A0080910E
:100A50007A00816080937A0080917A008068809328
:100A60007A001092C100E0914202F091430282E0CC
:100A70008083E0913E02F0913F021082E0914002BB
:100A8000F09141028FEC808310924A02E09146027D
:100A9000F091470286E08083E0914402F0914502A4
:100AA000808180618083E0914402F09145028081E1
:100AB00088608083E0914402F091450280818068E3
:100AC0008083E0914402F091450280818F7D808394
:100AD00084E00E94880082E00E94880060E084E058
:100AE0000E94A70060E082E00E94A70064E670E038
:100AF00080E090E00E94180161E082E00E94A7007F
:100B000064E670E080E090E00E94180160E082E01E
:100B10000E94A70080912802882309F4E3C063E3C0
:100B200071E0CE0101960E94AB034D815E81809100
:100B3000D3029091D4028417950780F08091CF0260
:100B40009091D002009751F069817A816115710509
:100B500029F00E947E0A11E0892B09F010E0CE01F5
:100B600001960E945003112309F4B2C01E861D860F
:100B7000188A1F861A8A198A6091CF027091D00252
:100B80006115710541F04091D3025091D402CE011C
:100B90000D960E9480036EEF71E0CE0107960E94D1
:100BA000AB0363E371E0CE0101960E94AB03A98819
:100BB000BA88A114B10409F461C08D809E808114AB
:100BC000910409F45BC0EB84FC84E818F9080D85F6
:100BD0001E85E114F104A1F469817A81C8010E94A3
:100BE0008C0A8C01009709F449C06F8178854B8588
:100BF0005C850E945C0A8B859C85080F191FECCFD1
:100C0000F7FC0FC069807A806501C801B3010E94BA
:100C10008C0A009709F46EC0880D991DCE0CDF1C5C
:100C2000F5CF680169817A81C8010E948C0A5C0154
:100C3000009701F14C01801A910AA401B801C60184
:100C40000E945C0AC80CD91C6F8178854B855C8535
:100C5000C6010E945C0A8B859C85C80ED91E0D8139
:100C60001E810A0D1B1D89899A898E0D9F1D9A8BE5
:100C7000898BD8CFB801C6010E94770ACE010196B0
:100C80000E945003CE0107960E9450038D859E85D9
:100C90000097B1F00E94B707653071058105910595
:100CA00009F414C10CF09BC06330710581059105F6
:100CB00009F4ECC0643071058105910509F4F6C0B2
:100CC0008DEF91E00E94D002CE010D960E9450035C
:100CD0001092280250E040E06EEF71E08FEC92E05D
:100CE0000E9480030E94B501882309F413CF0E945B
:100CF000BC0310CFAC14BD0409F28F8598898C1504
:100D00009D0568F4B6016F5F7F4FC8010E949F097F
:100D1000009709F4B3CF9E878D87D88ACF8609893B
:100D20001A890150110917FDA9CF48016D807E80F5
:100D30006114710409F4A2CFA988BA88A114B1047E
:100D400009F49CCFA614B70408F498CF0A151B0524
:100D500020F0450181E0881A9108CD84DE84298045
:100D60003A80C6010FEF1FEF2601480C591C4816A8
:100D7000590678F0B1010E948C0A009751F09C014D
:100D80002C193D098216930608F4980101968901F1
:100D9000EECF17FD73CF600E711EC601860D971D35
:100DA000A50146195709BC018E0D9F1D0E94650AB9
:100DB00089899A898E0D9F1D9A8B898B2D853E85F9
:100DC000820F931FFC0110828D859E856F8178852F
:100DD0004B855C85800F911F0E945C0AA2CF673013
:100DE00071058105910509F4B9C00CF493C0683010
:100DF00071058105910509F063CF86EB91E00E94B2
:100E0000D00204E110E08DED91E00E94D002C80113
:100E10000E94200387E691E00E94D00268EE73E012
:100E200080E090E00E9418010150110960F70E94D3
:100E30005C028BEE91E00E94D00210E000E0C8015D
:100E40006CE370E00E942A087C01CB010E94200321
:100E50008FEF91E00E94D002C7010E94200385E03D
:100E600092E00E94D00268EE73E080E090E00E9481
:100E700018010F5F1F4F0D3281E0180701F70E9424
:100E80004E028FE092E00E94D0021ACF85E391E0FB
:100E90000E94D00284E591E00E94D00283E090E0BD
:100EA0000E946A0284E192E00E94D00285E391E010
:100EB0000E94D00284E591E00E94D00283E090E09D
:100EC0000E946A0284E192E00E94D00201E010E0F8
:100ED0008CE691E00E94D002C8010E94200388E8BD
:100EE00091E00E94D00284E591E00E94D00285E06A
:100EF00090E00E946A0284E192E00E94D00280E9C0
:100F000091E00E94D0020E94DD020F5F1F4F0D3260
:100F10001105F1F601E010E08CE691E00E94D002AC
:100F2000C8010E94200388E891E00E94D00284E575
:100F300091E00E94D00285E090E00E946A0284E184
:100F400092E00E94D00280E991E00E94D0020E94CB
:100F5000DD020F5F1F4F08301105F1F684EB91E0C1
:100F60000E94D0024ACF8FEC92E00C9450031F9362
:100F7000FC0199278827BC01E89411911032E9F30C
:100F8000193010F01E30C8F31B3251F01D3249F4F5
:100F9000689406C00E94DE07610F711D811D911DBE
:100FA000119110531A30B0F33EF4909580957095DE
:100FB00061957F4F8F4F9F4F1F910895592F482F55
:100FC000372F262F660F771F881F991F660F771FF1
:100FD000881F991F620F731F841F951F660F771F4D
:100FE000881F991F08952F923F924F925F926F92A0
:100FF0007F928F929F92AF92BF92CF92DF92EF92A9
:10100000FF920F931F93CF93DF93CDB7DEB7CA1B29
:10101000DB0B0FB6F894DEBF0FBECDBF09942A8854
:10102000398848885F846E847D848C849B84AA84FC
:10103000B984C884DF80EE80FD800C811B81AA8189
:10104000B981CE0FD11D0FB6F894DEBF0FBECDBF54
:10105000ED01089597FB072E16F4009407D077FD55
:1010600009D00E94600807FC05D03EF49095819558
:101070009F4F0895709561957F4F0895A1E21A2EB4
:10108000AA1BBB1BFD010DC0AA1FBB1FEE1FFF1F2C
:10109000A217B307E407F50720F0A21BB30BE40B7C
:1010A000F50B661F771F881F991F1A9469F76095C3
:1010B0007095809590959B01AC01BD01CF0108957D
:1010C000AA1BBB1B51E107C0AA1FBB1FA617B7076E
:1010D00010F0A61BB70B881F991F5A95A9F780958A
:1010E0009095BC01CD010895EE0FFF1F0590F4917E
:1010F000E02D09940F931F93CF93DF9382309105D6
:1011000010F482E090E0E091D702F091D80230E054
:1011100020E0B0E0A0E0309799F42115310509F402
:101120004AC0281B390B24303105D8F58A819B81B0
:101130006115710589F1FB0193838283FE0111C062
:10114000408151810281138148175907E0F0481707
:10115000590799F4109761F012960C931297139611
:101160001C933296CF01DF91CF911F910F9108957B
:101170000093D7021093D802F4CF2115310551F016
:101180004217530738F0A901DB019A01BD01DF01C5
:10119000F801C1CFEF01F9CF9093D8028093D70225
:1011A000CDCFFE01E20FF31F8193919322503109BD
:1011B00039832883D7CF2091D5023091D602232BB3
:1011C00041F420910201309103013093D602209323
:1011D000D50220910001309101012115310541F422
:1011E0002DB73EB74091040150910501241B350BEA
:1011F000E091D502F091D602E217F307A0F42E1B7E
:101200003F0B2817390778F0AC014E5F5F4F24176A
:10121000350748F04E0F5F1F5093D6024093D5021A
:10122000819391939FCFF0E0E0E09CCFCF93DF9349
:101230000097E9F0FC01329713821282A091D70245
:10124000B091D802ED0130E020E01097A1F42081A8
:101250003181820F931F2091D5023091D602281739
:10126000390709F061C0F093D602E093D502DF910F
:10127000CF910895EA01CE17DF07E8F54A815B8137
:101280009E0141155105B1F7E901FB83EA834991BC
:101290005991C40FD51FEC17FD0761F4808191812E
:1012A0000296840F951FE901998388838281938137
:1012B0009B838A83F0E0E0E012968D919C911397D6
:1012C0000097B9F52D913C911197CD010296820FAF
:1012D000931F2091D5023091D6022817390739F68D
:1012E000309751F51092D8021092D702B093D602DF
:1012F000A093D502BCCFD383C28340815181840F98
:10130000951FC817D90761F44E5F5F4F8881998197
:10131000480F591F518340838A819B819383828325
:101320002115310509F0B0CFF093D802E093D70230
:101330009ECFFD01DC01C0CF13821282D7CFB0E077
:10134000A0E0E5EAF9E00C94F5078C01009751F470
:10135000CB010E947A088C01C801CDB7DEB7E0E16D
:101360000C941108FC01E60FF71F9C012250310973
:10137000E217F30708F49DC0D901CD91DC911197D4
:10138000C617D70798F0C530D10530F3CE010497C2
:101390008617970708F3C61BD70B2297C193D193E3
:1013A0006D937C93CF010E941609D6CF5B01AC1AD6
:1013B000BD0A4C018C0E9D1EA091D702B091D8029F
:1013C000512C412CF12CE12C109731F58091D50254
:1013D0009091D6028815990509F05CC0461657060B
:1013E00008F058C08091000190910101009741F4EC
:1013F0008DB79EB74091040150910501841B950B58
:10140000E817F90708F055C0F093D602E093D5022B
:10141000F90171836083A0CF8D919C9111971296F1
:101420006C90129713967C901397A815B90559F5EF
:101430006C0142E0C40ED11CCA14DB0420F1AC01E3
:101440004A195B09DA011296159780F0628273825D
:1014500051834083D9016D937C93E114F10471F0C1
:10146000D7011396FC93EE93129776CF22968C0FAA
:101470009D1FF90191838083F301EFCFF093D80290
:10148000E093D70269CF4816590608F42C017D0174
:10149000D3019ACFCB010E947A087C01009749F0D2
:1014A000AE01B8010E945C0AC8010E9416098701BA
:1014B00053CF10E000E050CFFB01DC0102C00190EF
:1014C0000D9241505040D8F708956817790768F495
:1014D000FB01DC01E40FF51FA40FB51F02C0029051
:1014E0000E9241505040D8F708950C945C0AFB01CD
:1014F000DC0101900D920020E1F70895FB01DC0171
:101500004150504030F08D910190801919F4002025
:10151000B9F7881B990B0895FB0151915523A9F048
:10152000BF01DC014D9145174111E1F759F4CD019F
:101530000190002049F04D9140154111C9F3FB0184
:101540004111EFCF81E090E00197089510E0CDE5E3
:10155000D0E004C0FE010E9474082196CE35D10768
:06156000C9F7F894FFCF6B
:101566000000D902800000000000E1014B01780173
:101576002E02A90187019B01756E6974206973208B
:10158600726561647920746F20636F6E74696E751D
:10159600650A004F00507265706172696E67206659
:1015A6006F72206578706F737572652031206F6673
:1015B60020310A00506572666F726D696E6720652C
:1015C60078706F737572652E2E2E0A0050726570D4
:1015D6006172696E6720666F72206578706F7375C9
:1015E6007265206E6F2E2000206F662034340A004C
:1015F60057616974696E6720666F722074756265DB
:1016060020636F6F6C696E672E2E2E2032367365DF
:1016160063730A005400504C4541534520474554D6
:10162600204F5554204F462054484520524F4F4D89
:1016360020464F522035204D494E530A00537461BF
:101646007274696E6720696E3A2000535441525491
:10165600494E47204558504F53555245210A0020C0
:101666006D696E200020736563732E2E2E0A004C62
:101676006F6E67204578706F7375726520636F6D46
:08168600706C6574650A000038
:00000001FF
