:100000000C945E000C9486000C9486000C94860080
:100010000C9486000C9486000C9486000C94860048
:100020000C9486000C9486000C9486000C949A0321
:100030000C9486000C9486000C9486000C94860028
:100040000C94F8020C9486000C9468030C94420300
:100050000C9486000C9486000C9486000C94860008
:100060000C9486000C948600000000080002010039
:100070000003040700000000000000000000000072
:10008000250028002B0000000000240027002A0083
:10009000040404040404040402020202020203032E
:1000A0000303030301020408102040800102040836
:1000B0001020010204081020D603F30511241FBEEE
:1000C000CFEFD8E0DEBFCDBF21E0A8E2B1E001C0B4
:1000D0001D92A03EB207E1F711E0A0E0B1E0E4EB31
:1000E000F0E102C005900D92A832B107D9F710E0F7
:1000F000CDE5D0E004C02197FE010E945506CC3525
:10010000D107C9F70E944A040C944D080C940000D2
:1001100090E0FC01EC55FF4F249180579F4FFC016C
:100120008491882399F090E0880F991FFC01EA5789
:10013000FF4FA591B491FC01E458FF4F8591949134
:100140008FB7F894EC91E22BEC938FBF089590E079
:10015000FC01E859FF4F2491FC01EC55FF4F34910D
:10016000FC01E057FF4FE491EE23C9F0222339F060
:10017000233001F1A8F4213019F1223029F1F0E007
:10018000EE0FFF1FE458FF4FA591B4918FB7F8947D
:10019000EC91611126C030953E233C938FBF0895AA
:1001A0002730A9F02830C9F0243049F78091800029
:1001B0008F7D03C0809180008F7780938000DFCF98
:1001C00084B58F7784BDDBCF84B58F7DFBCF8091E5
:1001D000B0008F778093B000D2CF8091B0008F7D38
:1001E000F9CF3E2BDACF3FB7F8948091350190914B
:1001F0003601A0913701B091380126B5A89B05C002
:100200002F3F19F00196A11DB11D3FBFBA2FA92F95
:10021000982F8827BC01CD01620F711D811D911D92
:1002200042E0660F771F881F991F4A95D1F70895FE
:100230008F929F92AF92BF92CF92DF92EF92FF92F6
:100240000E94F3004B015C0184E6C82ED12CE12C06
:10025000F12C0E94F300681979098A099B09683E0C
:10026000734081059105A8F321E0C21AD108E10885
:10027000F10888EE880E83E0981EA11CB11CC11401
:10028000D104E104F10429F7FF90EF90DF90CF90C3
:10029000BF90AF909F908F900895AF92BF92CF92F2
:1002A000DF92EF92FF920F931F93CF93DF936C0136
:1002B0007B018B01040F151FEB015E01AE18BF0817
:1002C000C017D10759F06991D601ED91FC910190C9
:1002D000F081E02DC6010995892B79F7C501DF91E1
:1002E000CF911F910F91FF90EF90DF90CF90BF9033
:1002F000AF900895FC01538D448D252F30E0842F5D
:1003000090E0821B930B541710F0CF96089501973D
:100310000895FC01918D828D981761F0A28DAE0F2A
:10032000BF2FB11D5D968C91928D9F5F9F73928FB1
:1003300090E008958FEF9FEF0895FC01918D828DDD
:10034000981731F0828DE80FF11D858D90E00895AA
:100350008FEF9FEF0895FC01918D228D892F90E002
:10036000805C9F4F821B91098F739927089589E3C1
:1003700091E00E94AB0121E0892B09F420E0822F5B
:100380000895FC01A48DA80FB92FB11DA35ABF4F2A
:100390002C91848D90E001968F739927848FA68984
:1003A000B7892C93A089B1898C91837080648C93D8
:1003B000938D848D981306C00288F389E02D808187
:1003C0008F7D80830895EF92FF920F931F93CF93B9
:1003D000DF93EC0181E0888F9B8D8C8D98131AC080
:1003E000E889F989808185FF15C09FB7F894EE8967
:1003F000FF896083E889F9898081837080648083C4
:100400009FBF81E090E0DF91CF911F910F91FF900E
:10041000EF900895F62E0B8D10E00F5F1F4F0F73B6
:100420001127E02E8C8D8E110CC00FB607FCFACF71
:10043000E889F989808185FFF5CFCE010E94C1014D
:10044000F1CFEB8DEC0FFD2FF11DE35AFF4FF08242
:100450009FB7F8940B8FEA89FB8980818062CFCFA8
:10046000CF93DF93EC01888D8823B9F0AA89BB89EB
:10047000E889F9898C9185FD03C0808186FD0DC0D6
:100480000FB607FCF7CF8C9185FFF2CF808185FFF7
:10049000EDCFCE010E94C101E9CFDF91CF91089548
:1004A00061E082E00E94A7000E94180160E082E003
:1004B0000C94A70061E084E00E94A7000E9418014C
:1004C00060E084E00C94A700FC0101900020E9F7B3
:1004D0003197AF01481B590BBC0189E391E00C94A3
:1004E0004D01CF93DF930E946402EC0188E191E01B
:1004F0000E9464028C0F9D1FDF91CF910895CF93CE
:10050000DF93EC018091D6019091D701009759F0CB
:100510002091D8013091D9012C173D0720F081E0BE
:10052000DF91CF910895BE016F5F7F4F0E948007DA
:10053000009789F09093D7018093D601D093D90189
:10054000C093D8012091DA013091DB01232B39F7D8
:10055000FC011082E4CF80E0E3CFEF92FF920F9393
:100560001F93CF93DF9300D0CDB7DEB7EE24E39493
:1005700089E391E00E94AB01892B59F189E391E075
:100580000E948901F82E89831A820091DA01109164
:10059000DB010F5F1F4FC8010E947F02882399F083
:1005A0002091D6013091D7018091DA019091DB0141
:1005B000BE016F5F7F4F820F931F0E94460810930A
:1005C000DB010093DA018AE0F812D2CFE0922F012A
:1005D000CFCF0F900F90DF91CF911F910F91FF9090
:1005E000EF9008950E94B70181110C94AD02089517
:1005F0001F920F920FB60F9211242F933F938F9358
:100600009F93AF93BF938091310190913201A0915C
:100610003301B09134013091300123E0230F2D37A5
:1006200058F50196A11DB11D209330018093310131
:1006300090933201A0933301B0933401809135013E
:1006400090913601A0913701B09138010196A11D1A
:10065000B11D8093350190933601A0933701B0937B
:100660003801BF91AF919F918F913F912F910F9042
:100670000FBE0F901F90189526E8230F0296A11D1C
:10068000B11DD2CF1F920F920FB60F9211242F934C
:100690003F934F935F936F937F938F939F93AF930A
:1006A000BF93EF93FF9389E391E00E94C101FF9113
:1006B000EF91BF91AF919F918F917F916F915F91DA
:1006C0004F913F912F910F900FBE0F901F90189553
:1006D0001F920F920FB60F9211242F938F939F9317
:1006E000EF93FF93E0914901F0914A018081E091FD
:1006F0004F01F091500182FD1BC090818091520109
:100700008F5F8F7320915301821741F0E091520166
:10071000F0E0E75CFE4F958F80935201FF91EF91DF
:100720009F918F912F910F900FBE0F901F90189552
:100730008081F4CF1F920F920FB60F9211242F9346
:100740003F934F935F936F937F938F939F93AF9359
:10075000BF93EF93FF9380912A0190912B01019613
:1007600090932B0180932A01209128013091290137
:100770002817390754F486E291E00E9471020E9422
:10078000500280916F0010926F00FF91EF91BF9126
:10079000AF919F918F917F916F915F914F913F9119
:1007A0002F910F900FBE0F901F90189510923C0143
:1007B00010923B0188EE93E0A0E0B0E080933D0111
:1007C00090933E01A0933F01B09340018AE091E0F5
:1007D00090933A018093390185EC90E09093460123
:1007E0008093450184EC90E0909348018093470109
:1007F00080EC90E090934A018093490181EC90E075
:1008000090934C0180934B0182EC90E090934E01C9
:1008100080934D0186EC90E09093500180934F01BE
:1008200010925201109253011092540110925501EE
:100830001092D7011092D6011092D9011092D801CE
:100840001092DB011092DA0190E080E00E947F02BA
:100850002091D6013091D701811113C021153105A6
:1008600019F0C9010E94F7061092D7011092D60123
:100870001092DB011092DA011092D9011092D80186
:1008800008951092DB011092DA016AE171E0C9016A
:100890000C944608CF93DF93CDB7DEB7A1970FB680
:1008A000F894DEBF0FBECDBF789484B5826084BD5E
:1008B00084B5816084BD85B5826085BD85B5816064
:1008C00085BD80916E00816080936E0010928100E2
:1008D000809181008260809381008091810081609D
:1008E000809381008091800081608093800080915E
:1008F000B10084608093B1008091B00081608093EA
:10090000B00080917A00846080937A0080917A00B0
:10091000826080937A0080917A00816080937A006F
:1009200080917A00806880937A001092C100E091F3
:100930004901F0914A0182E08083E0914501F09104
:1009400046011082E0914701F09148018FEC8083CD
:1009500010925101E0914D01F0914E0186E08083AB
:10096000E0914B01F0914C01808180618083E091A6
:100970004B01F0914C01808188608083E0914B01B4
:10098000F0914C01808180688083E0914B01F0916F
:100990004C0180818F7D808384E00E94880082E00A
:1009A0000E94880060E084E00E94A70060E082E08E
:1009B0000E94A7000E945002F894109280001092AA
:1009C0008100109285001092840089E09DE390934D
:1009D00089008093880080918100886080938100E5
:1009E000809181008460809381008091810081608A
:1009F00080938100789482E4782E9AE0892E912C5D
:100A0000A12CB12C2FE0E22EF12C34EFC32EDD24EB
:100A1000D39480912F018823C1F18091DA019091C4
:100A2000DB01892B31F0E091D601F091D7013097AD
:100A300021F410922C01ECE2F1E0108110922F01D0
:100A400090E080E00E947F022091D6013091D70192
:100A5000811123C02115310519F0C9010E94F70643
:100A60001092D7011092D6011092DB011092DA0198
:100A70001092D9011092D801133509F483C0BCF447
:100A80001C3409F497C01D34E1F00E94B70188239B
:100A900009F4BFCF0E94AD02BCCF1092DB011092CF
:100AA000DA016AE171E0C9010E944608E5CF143518
:100AB00009F496C0183549F70E94500282E291E08D
:100AC00076C070927C0080917A00806480937A0076
:100AD00080917A0086FDFCCF80917800909179001A
:100AE00090932E0180932D018BE191E00E9464028E
:100AF00020902D0130902E01032C000C4408550845
:100B000057FE2AC06DE289E391E00E94E3012227AB
:100B10003327A901221933094409550919A28E0165
:100B20000F5D1F4FCA01B901A50194010E94330650
:100B3000605DF80162938F01211531054105510572
:100B400089F70115110519F0C8010E94640288E1B6
:100B500091E00E94640299CFA201910119A28E0135
:100B60000F5D1F4FCA01B901A50194010E94330610
:100B7000605DF80162938F01211531054105510532
:100B800089F7DFCF80916F0010926F0010922B01D8
:100B900010922A01F0922901E092280180916F00C1
:100BA000826080936F000E945A028EE191E00E9461
:100BB00071026BCF80916F0010926F0010922B0129
:100BC00010922A01D0922901C092280180916F00D1
:100BD000826080936F000E945A0280E291E0E7CF2A
:100BE00084E291E0E4CF8091D6019091D701009703
:100BF00011F00C94F70608952F923F924F925F9256
:100C00006F927F928F929F92AF92BF92CF92DF921C
:100C1000EF92FF920F931F93CF93DF93CDB7DEB781
:100C2000CA1BDB0B0FB6F894DEBF0FBECDBF099415
:100C30002A88398848885F846E847D848C849B846C
:100C4000AA84B984C884DF80EE80FD800C811B817A
:100C5000AA81B981CE0FD11D0FB6F894DEBF0FBEA9
:100C6000CDBFED010895A1E21A2EAA1BBB1BFD0109
:100C70000DC0AA1FBB1FEE1FFF1FA217B307E4077B
:100C8000F50720F0A21BB30BE40BF50B661F771FD3
:100C9000881F991F1A9469F76095709580959095B3
:100CA0009B01AC01BD01CF010895EE0FFF1F059020
:100CB000F491E02D09940F931F93CF93DF9382302B
:100CC000910510F482E090E0E091DE01F091DF0107
:100CD00030E020E0B0E0A0E0309799F42115310534
:100CE00009F44AC0281B390B24303105D8F58A8114
:100CF0009B816115710589F1FB0193838283FE015C
:100D000011C0408151810281138148175907E0F0D9
:100D10004817590799F4109761F012960C9312979F
:100D200013961C933296CF01DF91CF911F910F91B3
:100D300008950093DE011093DF01F4CF21153105F2
:100D400051F04217530738F0A901DB019A01BD01A8
:100D5000DF01F801C1CFEF01F9CF9093DF0180935C
:100D6000DE01CDCFFE01E20FF31F8193919322505C
:100D7000310939832883D7CF2091DC013091DD01FF
:100D8000232B41F420910201309103013093DD01C6
:100D90002093DC01209100013091010121153105E2
:100DA00041F42DB73EB74091040150910501241B39
:100DB000350BE091DC01F091DD01E217F307A0F4BF
:100DC0002E1B3F0B2817390778F0AC014E5F5F4FA1
:100DD0002417350748F04E0F5F1F5093DD014093F5
:100DE000DC01819391939FCFF0E0E0E09CCFCF9323
:100DF000DF930097E9F0FC01329713821282A091F1
:100E0000DE01B091DF01ED0130E020E01097A1F4A8
:100E100020813181820F931F2091DC013091DD010F
:100E20002817390709F061C0F093DD01E093DC0178
:100E3000DF91CF910895EA01CE17DF07E8F54A81E7
:100E40005B819E0141155105B1F7E901FB83EA83FE
:100E500049915991C40FD51FEC17FD0761F48081AA
:100E600091810296840F951FE9019983888382817D
:100E700093819B838A83F0E0E0E012968D919C91B0
:100E800013970097B9F52D913C911197CD010296DA
:100E9000820F931F2091DC013091DD012817390763
:100EA00039F6309751F51092DF011092DE01B093C0
:100EB000DD01A093DC01BCCFD383C283408151818B
:100EC000840F951FC817D90761F44E5F5F4F888163
:100ED0009981480F591F518340838A819B81938355
:100EE00082832115310509F0B0CFF093DF01E09343
:100EF000DE019ECFFD01DC01C0CF13821282D7CF6D
:100F0000B0E0A0E0E6E8F7E00C94FE058C01009765
:100F100051F4CB010E945B068C01C801CDB7DEB74E
:100F2000E0E10C941A06FC01E60FF71F9C01225029
:100F30003109E217F30708F49DC0D901CD91DC9186
:100F40001197C617D70798F0C530D10530F3CE01F9
:100F500004978617970708F3C61BD70B2297C193F0
:100F6000D1936D937C93CF010E94F706D6CF5B019E
:100F7000AC1ABD0A4C018C0E9D1EA091DE01B091F1
:100F8000DF01512C412CF12CE12C109731F580918F
:100F9000DC019091DD018815990509F05CC04616C9
:100FA000570608F058C08091000190910101009708
:100FB00041F48DB79EB74091040150910501841B07
:100FC000950BE817F90708F055C0F093DD01E093A1
:100FD000DC01F90171836083A0CF8D919C91119701
:100FE00012966C90129713967C901397A815B905DA
:100FF00059F56C0142E0C40ED11CCA14DB0420F187
:10100000AC014A195B09DA011296159780F06282E9
:10101000738251834083D9016D937C93E114F10471
:1010200071F0D7011396FC93EE93129776CF229628
:101030008C0F9D1FF90191838083F301EFCFF09313
:10104000DF01E093DE0169CF4816590608F42C0150
:101050007D01D3019ACFCB010E945B067C010097F2
:1010600049F0AE01B8010E943D08C8010E94F70690
:10107000870153CF10E000E050CFFB01DC0102C03C
:1010800001900D9241505040D8F70895FB01DC01CA
:1010900001900D920020E1F7089510E0CDE5D0E039
:1010A00004C0FE010E9455062196CE35D107C9F72E
:0410B000F894FFCFE2
:1010B4000000E001800000000000E3014D017A011E
:1010C4003002AB0189019D010D0A004D3A00530025
:0810D4004C00580054004500D7
:00000001FF
